:020000040800F2
:1000000008B200205D020008CB480008F147000854
:10001000C9480008C5260008B156000800000000C5
:10002000000000000000000000000000E54D000896
:100030004528000800000000194A0008214E000869
:1000400077020008770200087702000877020008AC
:10005000770200087702000877020008770200089C
:10006000770200087702000877020008770200088C
:10007000770200087702000877020008770200087C
:100080002D27000877020008B12400087702000835
:10009000770200087702000877020008770200085C
:1000A000770200087702000877020008770200084C
:1000B000770200087702000877020008770200083C
:1000C000770200087702000877020008770200082C
:1000D00077020008895600087702000877020008B6
:1000E000770200087702000877020008770200080C
:1000F00077020008770200087702000877020008FC
:1001000077020008770200087702000877020008EB
:1001100077020008770200087702000877020008DB
:1001200039270008770200084527000851270008F2
:1001300077020008770200087702000877020008BB
:1001400077020008770200087702000877020008AB
:1001500077020008770200085D2700087702000890
:10016000770200087702000877020008770200088B
:1001700077020008770200087702000800000000FC
:1001800077020008770200084B1C012B98BF7047CC
:100190002DE9F003911C9B08B1F80480B1F802909E
:1001A0000A8831F802CC8044814402448444D9F85E
:1001B0000070D8F800601568DCF80040C9F80060ED
:1001C000C8F80070CCF800501460D9F80470D8F862
:1001D00004605568DCF80440C9F80460C8F804708D
:1001E000CCF80450546008315B1ED5D1BDE8F00353
:1001F00070474B1C012B98BF70472DE9F003911CF1
:100200009B08B1F80480B1F802900A8831F802CC5A
:1002100000EB580800EB590900EB520200EB5C0CB4
:10022000D9F80070D8F800601568DCF80040C9F80B
:100230000060C8F80070CCF80050146008315B1EF4
:10024000DFD1BDE8F0037047DFF80CD001F0D0FE3D
:10025000004800471569000808B20020064880479A
:1002600006480047FEE7FEE7FEE7FEE7FEE7FEE79B
:10027000FEE7FEE7FEE7FEE7054F0008490200083B
:100280009FED3D0A5FEA920C57D000BFD0ED000A07
:1002900090ED011A0B1D60EEA00A083041EE010A34
:1002A000F5EEC00AF1EE10FAC6BFB1EEE01A81ED2C
:1002B000001A81ED000AD0ED000A90ED011A191D17
:1002C00060EEA00A083041EE010AF5EEC00AF1EE38
:1002D00010FAC6BFB1EEE01A83ED001A83ED000AF2
:1002E000D0ED000A90ED011A0B1D60EEA00A083057
:1002F00041EE010AF5EEC00AF1EE10FAC6BFB1EE0A
:10030000E01A81ED001A81ED000A90ED001AD0ED9F
:10031000010A191D21EE011A083000EEA01AB5EEEF
:10032000C01AF1EE10FAC6BFF1EEC10AC3ED000A21
:1003300083ED000ABCF1010CA8D112F0030208BF42
:10034000704700BFD0ED000A90ED011A0B4660EE39
:10035000A00A091D083041EE010AF5EEC00AF1EECF
:1003600010FAC6BFB1EEE01A83ED001A83ED000A61
:10037000521EE7D1704700000000000091ED000A16
:10038000D1ED010AD0F814C030EE001A70EEA00AC8
:100390000088B6EE000A431E71EE201A71EE600A64
:1003A0000CF1080001EBC30C61EE801A60EE800ACC
:1003B0000831C2ED001AC2ED010A08329CED003A84
:1003C00091ED001ADCED010AD1ED011A73EE413A0C
:1003D000D0ED002A90ED012A30EEA14A62EEA34A48
:1003E00031EE031A62EE233A71EEE00A22EE042A9D
:1003F00031EE241A62EE842A70EEA30A083031EE40
:10040000021A083170EEE20AACF1080C21EE001A73
:1004100060EE800A82ED001AC2ED010A08325B1E0E
:10042000CCD17047D1ED000A91ED011AD0F814C07B
:10043000008870EE811A70EEC10AB6EE000A431E03
:1004400061EE801A60EE800A0CF10800C2ED001A1D
:10045000C2ED010A01EBC30C01F1080102F108022F
:1004600008BF7047DCED010A9CED003A91ED002ACF
:1004700091ED011A90ED004A72EE431AD0ED013A67
:1004800071EE202A32EE032A64EE214A63EEA11AAD
:1004900071EE600A23EEA25A32EE642A64EE222A3A
:1004A00070EEA10A083032EE452A083170EEE20AF9
:1004B000ACF1080C22EE002A60EE800A82ED002AE0
:1004C000C2ED010A08325B1ECCD170472DE9F04124
:1004D0000446008A1D004FEA500016460F46208051
:1004E0000AD02046FFF79EFF2A4631462046BDE847
:1004F000F041012300F08CBB01232A46204600F086
:1005000087FB324639462046BDE8F04136E7000019
:100510004A08002302800182B2F5807F31D008DCD6
:10052000102A4FD0202A45D0402A3BD0802A31D0F3
:1005300008E0B2F5007F1BD0B2F5806F0FD0B2F5A6
:10054000006F03D04FF0FF33184670474FF46E62D0
:100550008281214A8260214A2149426039E04FF478
:10056000E16282811F4A82601F4A2049426030E076
:100570004FF4E07282811E4A82601E4A1E49426028
:1005800027E04FF4DC7282811C4A82601C4A1D49BC
:1005900042601EE0D02282811B4A82601B4A1C49B5
:1005A000426016E0382282811A4A82601A4A1B4948
:1005B00042600EE030228281194A8260194A1A494B
:1005C000426006E014228281184A8260184A194962
:1005D00042604161B8E700000801010870A9000805
:1005E000485E0108F8F2000870890008483E0108DA
:1005F00078EF000870790008482E010808EC000820
:10060000707100084826010868EA0008706D00084B
:1006100048220108F8E90008706B0008482001082A
:1006200098E90008706A0008481F010870E900088E
:10063000F0690008C81E01082DE9F04106462DEDBD
:10064000028B8C460088736801EB800445082746BE
:1006500001EB850004EB85025FEA95087DD000BFC1
:10066000D1ED003AD4ED001A91ED012A94ED013A52
:1006700073EEA16A91ED024A91ED031AD4ED022ABC
:10068000D4ED035A90ED008A90ED017A90ED020AC4
:1006900090ED036A92ED005AD2ED014AD2ED027A52
:1006A000D2ED030AC1ED006A72EE036A73EEE13A1D
:1006B00074EEC71AC1ED016A74EE226A74EE622A02
:1006C00037EEC04AC1ED026A71EE256AC1ED036AD8
:1006D00072EE436A31EE652A38EE051A35EE483A75
:1006E00080ED001A37EE241A80ED011A30EE271A39
:1006F00080ED021A36EE201A80ED031A30EEC61A8B
:1007000093ED000AD3ED010A63EE804A26EEA05A6B
:1007100066EE805A63EEA03A74EE854A75EEE33ACF
:10072000C4ED004A63EE204AC4ED013A61EE803A1E
:1007300061EEA00A23EE000A74EEE31A30EE800A9E
:10074000C2ED001A82ED010A93ED020AD3ED030A0D
:1007500062EE803A22EE203A00E024E062EEA01A37
:1007600022EE002A73EE832A1030103172EE611AE5
:10077000C4ED022A24EE202AC4ED031A61EE001A09
:1007800061EE200A24EE000A103332EE611A1034B2
:1007900030EE800A82ED021A82ED030A1032B8F1BF
:1007A00001087FF45DAF294602236046726800F0BD
:1007B000D5FA72682946BDEC028B3846BDE8F04197
:1007C000022300F0CBBA2DE9F34F2DED048B87B057
:1007D0000B980088470801EB870000EB870606EBC3
:1007E0008705CDE90056DDF82C80A5F1040C0CEB53
:1007F0008703CDE902014FEA5709D8F8048004279E
:10080000CDE90497D1ED000A96ED000A90ED011AAA
:1008100095ED013A70EE802A70EEC03AD1ED010AF2
:1008200096ED010A041F321F30EE802A70EEC01AC6
:1008300031EE230AD0ED000A32EE415A33EEC11AEE
:1008400030EE434A71EEE04A95ED000A70EEA11ACF
:1008500035EE435A74EE805A72EEE04A70EEA20A08
:1008600071EEC01A31EE031A74EEC04A30EE800AFF
:10087000062708F1080A81ED000A90ED010AD5ED7E
:10088000010A08F1100B30EE020A08F1180830EEE8
:10089000200A81ED010A80ED004AC0ED015AC6ED43
:1008A000004A86ED015A85ED001AC5ED011ADDF802
:1008B00010900830083108350836A9F102095FEABE
:1008C000590900F0078100BFD1ED000A96ED000A3A
:1008D000D0ED011AD5ED014A30EE802A30EEC05A33
:1008E000D1ED010A96ED010A70EE802A30EEC01AB1
:1008F00031EE850AD5ED000A30EE644A90ED000A2B
:1009000031EE403A30EE011A73EE205A32EE403AA0
:1009100030EE020A31EE601A73EE603A30EE200AD1
:1009200032EEE13A75EE611A81ED000A90ED010AAE
:10093000D5ED010A33EE643A30EE220A71EEA41AC4
:1009400030EE200A81ED010AD4ED002ADCED004AE8
:1009500054ED010A1CED010A32EEA47A32EEE49A5B
:1009600072EEE42A52ED018A70EE807A30EEC02AEF
:1009700072EEE82AD2ED000A93ED000A13ED018A27
:1009800030EEC05A72EE886A77EEE82A35EE026AD7
:1009900032EEC85A77EE602A72EEC04A70EEC02A74
:1009A00070EE870A72EEC22A30EE800A38EE682AAC
:1009B00084ED000A12ED010A53ED010A32EE492AD4
:1009C00030EE270A30EE200A04ED010A9AED000A03
:1009D000DAED010A64EE007A25EEA07A65EE805A1F
:1009E00024EE204A37EE877A35EEC44A80ED007A4D
:1009F00080ED014A26EEA04A66EE005A66EE200A15
:100A000026EE800A083034EE654A083130EE800A5E
:100A100082ED004A083C02ED010A9BED000ADBED85
:100A2000010ADDF814E023EE804A63EE205A23EE3B
:100A3000003A63EEA03A083A34EE254A0BEB8E0BEF
:100A400033EE633A86ED004A0AF1080A86ED013A70
:100A5000B1EE643A083663EE003A25EE203A25EE10
:100A6000000A64EEA00A33EEC33A30EEC00A8CED01
:100A7000003A0CED010A98ED000AD8ED010A08EBE6
:100A8000870861EE803A21EE203A21EE001A61EEED
:100A9000A01AACF1080C33EE833A31EE611A85ED01
:100AA000003A62EE801A85ED011A22EE201A62EEFB
:100AB000A00A22EE000A083531EE611A30EE800AF3
:100AC00083ED001A03ED010A083BB9F101097FF437
:100AD000FBAE00BFD1ED000A96ED000A91ED011AC0
:100AE000D0ED015A30EE802A70EEC00A96ED010A70
:100AF00095ED015A042371EE001A71EE404A35EE6D
:100B0000A00A90ED001A31EEE54A70EEE50A30EEEB
:100B1000453A95ED000A34EE454A30EE855A74EEBA
:100B2000C12A72EE413A71EE240A31EE021A72EED7
:100B3000802A73EEC03A70EEC00A31EE000A81EDF1
:100B4000000A90ED010A95ED011A30EE210A30EE0F
:100B5000010A81ED010A9AED000A9AED011A63EE8D
:100B6000001A22EE812A22EE800A23EE011A71EE8B
:100B7000821A30EE410AC0ED001A80ED010A9BEDA9
:100B8000000A9BED011A63EE801A24EE012A24EE7E
:100B9000000A23EE811A71EE821A30EE410AC6ED88
:100BA000001A86ED010A98ED010A98ED001A60EE30
:100BB000801A25EE012A60EE810A25EE000A32EE47
:100BC000211A30EEC00A85ED001A85ED010A0B9856
:100BD0004268DDE9030100F0C1F80B980423049991
:100BE0004268029800F0BAF80B980423049942680E
:100BF000019800F0B3F80B98049904234268009818
:100C000007B0BDEC048B02B0BDE8F04F00F0A6B811
:100C10002DE9F0410488984617460D460646012AFC
:100C200020D1281DF4B1A0F1080114F0010F06D065
:100C300091ED020AB1EE400A81ED020A08315FEA45
:100C4000540C0FD091ED020AB1EE400A81ED020A78
:100C500091ED040AB1EE400A81ED040A1031BCF1B5
:100C6000010CEFD1B4F5807F1BD008DC102C13D021
:100C7000202C16D0402C19D0802C0DD01CE0B4F5BF
:100C8000007F13D0B4F5806F06D0B4F5006F08D0A4
:100C9000B4F5805F0AD00FE029463046FFF7CCFC60
:100CA0000AE029463046FFF78EFD05E02146012384
:100CB0002846726800F052F8B8F1000F04D0B189EC
:100CC0002846B268FFF760FA012F18BFBDE8F0812F
:100CD00000EE104AB7EE001A002CF8EE400A81EE42
:100CE000200A08BFBDE8F081A5F1080014F0010F4B
:100CF0000ED0D0ED020A60EE800AC0ED020AD0EDFF
:100D0000030AF1EE600A60EE800AC0ED030A0830C3
:100D1000610808BFBDE8F081D0ED020A60EE800AEC
:100D2000C0ED020AD0ED030AF1EE600A60EE800A1F
:100D3000C0ED030AD0ED040A60EE800AC0ED040A9B
:100D4000D0ED050AF1EE600A60EE800AC0ED050AFA
:100D50001030491EE0D1BDE8F08100002DE9FF4FC1
:100D60002DED108B82B09FEDFEFA0B461C46DB0882
:100D70004FF0000C0CEB030505EB030808EB03092F
:100D800009EB030606EB030A00EBCC0700EBC606F3
:100D900097ED001AD6ED000A0AEB030B00EBC50530
:100DA00000EBCA0A31EE200A71EE601A95ED002AB6
:100DB000DAED000A0BEB030E00EBC80832EE201A46
:100DC00000EBCB0B32EE602AD8ED002ADBED000AF7
:100DD00000EBC90900EBCE0E99ED003A9EED004AFA
:100DE00072EEA03A72EEE02A73EE040A33EE443A51
:100DF00070EE636A70EE233A31EE600A71EE200AFB
:100E000033EEA01A73EEE00A87ED001AC6ED000A71
:100E100097ED011AD6ED010AD5ED013A98ED014A98
:100E200031EE206A71EE600A9AED011A99ED015ACD
:100E300073EE814A73EEC13A9BED011A34EE017AEA
:100E400034EE411A9EED014A75EE045A35EE444ADD
:100E500036EE475A36EE076A34EEE57A74EEA54A66
:100E600076EE245A76EE644AC7ED015AC6ED014A81
:100E700076EE874AC8ED004A76EEC74ACBED004AC7
:100E800075EE404A35EE000AC8ED014A8BED010AC5
:100E900032EE430A32EE032A20EE0F0A62EE0F4AC8
:100EA00033EEC42AA4448C4522EE0F3A33EE842A52
:100EB00030EEC34A62EE0F3A30EE833A31EEC02A8A
:100EC00031EE800A71EE630A31EE231A72EEE41AF3
:100ED00072EEA42A70EE013A30EE410AC5ED003AF6
:100EE0008EED000A32EE200A8AED000A32EE600A28
:100EF00089ED000A33EE620A85ED010A33EE220A1B
:100F00008EED010A34EE610A8AED010A34EE210AFF
:100F100089ED010AFFF42EAF082B3FBF02B0BDECF4
:100F2000108B04B0BDE8F08F4FF0000CCDF804C07A
:100F30004FF0010CCDF800C0DDF804C0159DAC44A5
:100F40004FEA8C0505EB0C07CDF804C007EB0C0944
:100F50004FEA4C0808EB0C0609EB0C0A02EBCC0C30
:100F600002EBC80802EBC60602EBC50502EBC70799
:100F700002EBC90902EBCA0A9CED00DA9CED018A7A
:100F8000D8ED00CA96ED00CAD5ED00BA97ED00BACB
:100F9000D9ED00AADAED008AD8ED017A96ED01AA22
:100FA00095ED017AD7ED016A99ED016ADAED019AC2
:100FB000DDF800C00CEB0307FD1805EB030A0AEB94
:100FC000030808EB030606EB030B00EBCC0900EB70
:100FD000C808D9ED000A98ED000A00EBC70700EB3E
:100FE000C606D7ED001A96ED001A70EE803A0BEBAC
:100FF000030E70EEC00A31EE810A00EBC50500EB6E
:10100000CB0B31EEC11AD5ED001A9BED002A00EB97
:10101000CA0A00EBCE0E31EE824A71EEC21A9AED88
:10102000002ADEED002A32EE223A32EE622A73EE18
:10103000C42A73EE843A30EE435A30EE030A33EE9C
:10104000803A73EEC0DA89ED003A99ED010A98ED25
:10105000013AD7ED013A95ED014A70EE03EA30EE20
:10106000433A96ED010A9AED01EADEED014A33EECC
:10107000809A73EEC03A9BED010A74EE005A34EE8A
:10108000404A3EEE240A7EEE644A3EEEE5EA7EEEFB
:10109000A55A79EE40EA39EE009A32EEAE0A72EEC7
:1010A000EE2A75EE89EA35EEC99A7EEE455AC9ED0B
:1010B00001EA3EEE055A2BEEADEA67EE09EA2BEEA9
:1010C000899A67EE2DDA3EEE2EEA39EE6D9A88EDBA
:1010D00000EA67EEA5DA88ED019A2CEE809A6CEEB4
:1010E000A55A27EE800A39EE2D9A35EEC00A85ED15
:1010F000009A66EE055A85ED010A2AEEA20A2AEE4A
:10110000855A66EE222A30EE250A8BED000A35EE6E
:10111000620A73EEA42A8BED010A31EE420A31EE27
:10112000021A33EEE42A62EE8F3A20EE0F0A21EE25
:101130000F1A22EE0F2A70EEC02A30EE800A71EEEE
:10114000C10A71EE811A33EE421A33EE022A34EEEE
:10115000633A34EE234A70EE043A30EE444A01E03A
:10116000F304353F72EE834A72EEC32A32EE613ADF
:1011700032EE210A71EE601A71EE200A2DEE232A5A
:1011800028EE031A2DEE033A68EE233AA44432EE19
:10119000011A28EE842A8C4587ED001A33EE631A73
:1011A00029EE843A87ED011A29EE801A28EE800A8A
:1011B00032EE011A30EE430A26EEA42A8EED001A12
:1011C0008EED010A2BEE240A26EEA11A6BEE211AEF
:1011D00030EE010A2CEE221A86ED000A31EEC20A28
:1011E0006AEE221A86ED010A2AEE200A6CEE200A27
:1011F00031EE000A8AED000A30EEE10A8AED010ABA
:10120000FFF4D8AEDDF800C00CF1010CCDF800C041
:1012100063453FF691AEDDF854C04FF6FF7404EA23
:10122000CC0CCDF854C0072B3FF6A0AD02B0BDECFE
:10123000108B04B0BDE8F08F2DE9F05F054600206B
:1012400092469B4688460646814640241BE0284637
:1012500041464746224600F037F953465A46C01ADF
:10126000914110D311461846224600F01EF92D1A5E
:1012700067EB01084F4622460120002100F015F9D6
:1012800017EB00094E41201EA4F10104DFDC4846A3
:1012900031462A464346BDE8F09FD2B201E000F84D
:1012A000012B491EFBD270470022F6E710B513460A
:1012B0000A4604461946FFF7F0FF204610BD30B538
:1012C00005462A460B4612F8010B13F8014B08B1EC
:1012D000A042F8D01CB1002802D06D1CF1E72846CE
:1012E00030BD421C10F8011B0029FBD1801A704749
:1012F0000FB400B58DB010A909900B9000914FF07C
:10130000FF300A9000200C90054806900548079091
:101310006A4609A80F9900F05FFC0DB05DF814FB58
:10132000F51B0008131C00082DE9F04D81EA0304A9
:1013300004F0004B21F0004514464FF0000A23F062
:10134000004150EA050220D054EA01021DD0C5F345
:101350000A570246C5F31303C1F31300C1F30A563B
:1013600040F4801543F48013A7EB0608101BD64603
:1013700008F2FD3873EB050002D308F1010801E023
:1013800092185B41B8F1000F03DA00200146BDE876
:10139000F08D00204FF48011064684460EE0171BA6
:1013A00073EB050705D3121B63EB050306434CEAF9
:1013B000010C49084FEA300092185B4150EA0107DE
:1013C000EDD152EA030012D082EA040083EA05015B
:1013D000084305D0101BAB4106D20122002306E0D2
:1013E00000224FF0004302E06FF0010253101AEBAD
:1013F00006004CEB085110EB0A0041EB0B01BDE875
:10140000F04D00F04EBC0EB540F233410291002188
:10141000CDE900110A460B4600F052FC03B000BDB6
:1014200000F0004230F000400AD0C10D01F56071BB
:10143000C0F3160042EA0151C20840071143704749
:1014400000200146704701F0004330B421F0004114
:1014500050EA010206D00A0DA2F56072C1F3130131
:10146000002A02DC30BC00207047440F44EAC1046B
:10147000C100E01830BC00EBC25000F0DBBB30B55F
:101480000B46014600202022012409E021FA02F542
:101490009D4205D303FA02F5491B04FA02F52844DC
:1014A000151EA2F10102F1DC30BD202A04DB203A36
:1014B00000FA02F1002070479140C2F1200320FAA7
:1014C00003F3194390407047202A04DB203A21FAA5
:1014D00002F00021704721FA02F3D040C2F120024D
:1014E00091400843194670472DE9FF4F1C4681B0D3
:1014F0000021D4E9016791464FF0FF358A468846BE
:10150000A1696D1C02988847216A83468847002894
:10151000F6D1BBF1FF3F0CD026F4C066002F1ADDD8
:10152000700615D5BBF12B0F0AD0BBF12D0F0FD1D3
:1015300004E04FF0FF3005B0BDE8F08F46F4806660
:10154000A1696D1C029888477F1E8346002F02DD2B
:10155000BBF1300F03D0B9F1000F2AD025E0A1690B
:101560006D1C46F400767F1E029888478346002F44
:1015700005DDBBF1780F06D0BBF1580F03D0B9F1F0
:10158000000F10D011E0B9F1000F02D0B9F1100F27
:101590000BD1A1696D1C26F400767F1E0298884746
:1015A0008346102000E0082081464FEAE970009051
:1015B00017E00A20F8E74346AAFB092803FB098045
:1015C000DDF800C07F1E0AFB0C0112EB0B0A41EB99
:1015D000EB78A16946F4007605F101050298884789
:1015E0008346002F06DD4946584600F02AFD5FEA93
:1015F000000BE0D5E16902988847B00502D46FF08E
:10160000010098E7F00718D1700610D57005514613
:1016100005D50023D1EB030163EB080200E042464D
:101620002068031D23600068C0E9001205E02068FF
:10163000011D21600068C0E900A828467BE72DE96C
:10164000FF5F1D464FF0FF3BD5E9014691465F46DF
:101650004FF00008A9697F1C01988847296A8246D3
:1016600088470028F6D1BAF1FF3F0CD024F4C064BB
:10167000002E19DD600614D5BAF12B0F09D0BAF18E
:101680002D0F0ED103E0584604B0BDE8F09F44F49E
:101690008064A9697F1C01988847761E8246002EC7
:1016A00002DDBAF1300F03D0B9F1000F26D032E0DD
:1016B000A969761E44F400747F1C0198884782460D
:1016C000002E05DDBAF1780F06D0BAF1580F03D01D
:1016D000B9F1000F10D01EE0B9F1000F02D0B9F13E
:1016E000100F18D1A969761E24F400747F1C01988C
:1016F00088478246102002E0082000E00A20814648
:1017000009E008FB0908A969761E44F400747F1CEF
:10171000019888478246002E05DD4946504600F074
:1017200090FC0028EDDAE96901988847A00502D409
:101730006FF00100A8E7E00725D1600613D560052A
:1017400002D5C8F1000000E0404629680A1D2A6061
:101750000968220501D5087015E0220701D5088027
:1017600011E008600FE02868011D2960006821056C
:1017700002D580F8008006E0210702D5A0F800809D
:1017800001E0C0F8008038467EE72DE9FF5FD2E92E
:1017900001A74FF00008916999461446DDF838B06A
:1017A000464601988847054659EA0B0005D009E0EE
:1017B000A169761C019888470546216A2846884712
:1017C0000028F5D1681C03D05FEACA7005D015E087
:1017D0004FF0FF3004B0BDE8F09F2068011D21608C
:1017E000D0F800800AE05FEACA7001D108F8015B16
:1017F000A169761C7F1E019888470546002F1ADDD7
:10180000681C18D0B9F1000F0DD0E81705EBD060B7
:10181000421120F01F0059F822102A1A012090408E
:101820000142E0D107E0BBF1000FDCD1216A28467C
:1018300088470028D7D0E16901988847BBF1000F9D
:1018400007D1002E05DD5FEACA7002D1002188F8B9
:101850000010A068B84203DDBBF1000F03D017B140
:101860006FF00100B6E73046B4E700002DE9FF4F06
:10187000087883B09946FF2805D0491C2D2804D04C
:101880000024002008E000200BE00124F9E700EB31
:10189000800003EB4000491C0B78FF2BF7D104B10B
:1018A000404200230293147819461D462D2C01D086
:1018B0002B2C04D1521C2D2C13D000240294AA46A8
:1018C0001478FF2C0FD00A25A3FB057801FB0581B6
:1018D0004FF0000C03FB0C11521CE3194AEB010101
:1018E000EEE70124EAE7814453EA010002D019F54A
:1018F000C87F06DA03980021C0E9001107B0BDE8EF
:10190000F08F0025AE4E2F46DFF8B882184600F063
:101910003DFDCDE90001B9F1000002DAC9F1000492
:1019200000E004460023A74A1AEB030B42EB045ADB
:1019300012E0E00707D02A4633463846414600F019
:10194000B4FA074688462A4633461046194600F040
:10195000ACFA05460E466410002CEAD1DDE9000120
:10196000B9F1000F5A46534606DAFFF7DDFC3A4656
:101970004346FFF7D9FC05E000F097FA3A464346A4
:1019800000F093FA029A0AB181F00041039AC2E989
:101990000001B3E72DE9FF4F1F468DB0D7E901469F
:1019A0004FF0FF382E2045464FF000090B90B969E3
:1019B0006D1C0E988847396A824688470028F6D100
:1019C000BAF1FF3F0AD024F4D064002E11DDBAF141
:1019D0002B0F08D0BAF12D0F0BD102E0404611B009
:1019E0008DE744F48064B9696D1C0E98884782467F
:1019F000761E6946600501D52D2000E02B208DF86C
:101A0000000001F1010B0DF1200809E0B9696D1C1E
:101A10000E98884782460F9844F40074761E05603D
:101A2000002E02DDBAF1300FF0D00B998A453ED17D
:101A300044F0800406E00F99681CA9F1010944F400
:101A400000740860B9696D1C761E0E98884782463E
:101A50003028F0D02BE00B998A4505D1200603D41D
:101A600044F08004761E18E0504603F015FF08B3DA
:101A70000DF11301761E44F400748B4508D2AAF1CF
:101A800030000BF8010B200607D5A9F1010003E097
:101A9000200602D409F101008146A00502D50F9964
:101AA000681C0860B9696D1C0E9888478246002E34
:101AB000D1DC53E0002E51DDBAF1650F02D0BAF14E
:101AC000450F4BD1A00549D5B9696D1C24F440746C
:101AD000761E0E9888478246002E0CDD2B2804D0F7
:101AE000BAF12D0F07D144F48074B9696D1C0E98BA
:101AF00088478246761EE00501D52D2100E02B2186
:101B000008F8011BCDF82C8021E00DF12901761E8B
:101B100044F4007488450CD2AAF1300010F0FF00A4
:101B200088F8000002D10B99884509D908F101080D
:101B300006E0E00501D5244801E042F20F7081463D
:101B4000B9696D1C0E98884782460F980560002E73
:101B500004DD504603F0A0FE0028D6D1F9690E98A6
:101B60008847FF208BF8000088F8000000200690CE
:101B700007904B466A4608A906A8FFF777FEA0051E
:101B800002D46FF001002AE714F0240F0AD0E00716
:101B900014D1DDE906123868031D3B600068C0E916
:101BA00000120BE0DDE90601FFF74DFC0146E007FE
:101BB00004D13868021D3A600068016028460EE7CB
:101BC000000014400000F03FF1D8FFFF026811440C
:101BD0001378016018467047D16004495161044987
:101BE000116200211161114600F03ABACD1B0008C4
:101BF00039200008426842B1016811F8013B23B165
:101C0000521EC0E90012184670470121C160881EAB
:101C1000704742685AB1C368016843B983688B4210
:101C200005D0491E521CC0E90012002070474FF039
:101C3000FF3070470029A8BF7047401C490008BF0B
:101C400020F00100704710B4B0FA80FC00FA0CF0EC
:101C500050EA010404BF10BC704749B1CCF1200424
:101C600021FA04F411FA0CF118BF012121430843B1
:101C7000A3EB0C01CB1D4FEA00614FEA102042BFDD
:101C8000002010BC704700EBC35010440029A4BFD3
:101C900010BC7047401C490008BF20F0010010BC78
:101CA000704710B5141E73F1000408DA401C41F1AE
:101CB000000192185B411A4301D120F0010010BDD0
:101CC0002DE9F04D92469B4611B1B1FA81F202E046
:101CD000B0FA80F220329046FFF7E7FB04460F4649
:101CE00040EA0A0041EA0B0153465A46084313D022
:101CF000114653EA010019D0C8F140025046FFF7DF
:101D0000E3FB05460E46504659464246FFF7CDFBDB
:101D1000084305D0012004E020463946BDE8F08D97
:101D20000020054346EAE0762C4337430A986305D2
:101D3000E40AA0EB08000022FD0A44EA47540A30F6
:101D400002D500200146E9E7010510196941DDE9E6
:101D5000084500196941BDE8F04DA2E72DE9FE4FA5
:101D6000804681EA0300C00F0C46009021F000413C
:101D700023F00045B8EB0200A94105D240462146B8
:101D800090461C460B46024623F00040104347D0C5
:101D9000270DC7F30A00C3F30A510290401A0190BD
:101DA00040286BDAC3F3130040F4801B009892467E
:101DB00020B10023D2EB030A63EB0B0B01985946C9
:101DC000C0F140025046FFF770FB06460D465046F4
:101DD0005946019A00F01EF910EB080061410024F9
:101DE00087EA115284EAE7731A4340D0009A62B33B
:101DF000019A012A4FEA075215DC001B61EB020130
:101E00004FF0004202EA0752CDE90042001C41F5C2
:101E1000801132462B46FFF753FF03B0BDE8F08F29
:101E200040462146F9E7001B61EB0201001C41F529
:101E3000801300185B412018A2F5001747EB03013F
:101E400040EAD570B6196D4111E06D084FEA3606CB
:101E500045EAC0754FEA0752001B61EB0201001C06
:101E600041F5801149084FEA3000001951413246CE
:101E70002B4603B0BDE8F04FFFF713BF00980122D7
:101E800040000023D0EB020263EBE0730098214690
:101E90004FEAE074B8EB000061EB0401E9E783F07E
:101EA00000435BE781F0004158E72DE9FE4F81EAEE
:101EB000030404F0004421F0004100944FF0000BB3
:101EC00023F0004350EA01045ED052EA03045BD0E1
:101ED000C3F30A54C1F30A552C44A4F2F334019419
:101EE000A0FB0254C1F3130141F48011C3F31303A7
:101EF00043F4801301FB024400FB034E840A970A5B
:101F000044EA815447EA8357A4FB076802958D0A87
:101F100005FB07854FEA932C04FB0C542705029D13
:101F20004FEA065847EA1637B5EB08056EEB070C83
:101F3000870E920E47EA811742EA8312A7FB02013D
:101F4000B6EB0B0164EB00042B0D43EA0C335E1877
:101F500044EB1C50DA465146E7FB0201C5F313047B
:101F60004FEA0B3343EA14534FEA0432019C43EA2D
:101F70000603A4F10C040294009CCDE900B4FFF721
:101F80009FFE03B0BDE8F08F00200146F9E7C1F3E2
:101F90000A52C1F3130140F2FF3341F480119A4217
:101FA00002DA00200146704740F233439A42A2F21F
:101FB000334202DC5242FFF787BAFFF776BA0000DD
:101FC00030B5041E71F1000404DB4FF000444042C0
:101FD00064EB0101141E73F1000405DB1C464FF095
:101FE0000043524263EB0403994208BF904230BD64
:101FF000064C074D06E0E06840F0010394E8070056
:1020000098471034AC42F6D3FEF722F9889E0108B7
:10201000A89E0108202A06DBCB17203A41FA02F0DD
:1020200043EAE07306E041FA02F3D040C2F1200235
:102030009140084319467047C0B24FF4F05100F088
:10204000B1B93A2800D2303820F02002412A01D319
:10205000A2F13700884201D34FF0FF3070470000F3
:102060002DE9F34F8BB04FF0000801F10C000C4646
:102070004FF0010B46460DF1080A019062690121FB
:1020800001989047051E2DD0252D2CD0216A884718
:10209000C0B16269012101989047216A88470028F0
:1020A000F7D1411E62690198904700E0761CA16952
:1020B0000B988847216A88470028F7D1E1690B9877
:1020C0008847DBE7A1690B9888470746A84201D1FA
:1020D000761CD3E7E1690B9888477F1C02D1B8F1E1
:1020E000000F6FD046E1002762693D4639460198EE
:1020F00090472A2804D1626901210198904701255F
:10210000DFF884926269012101989047A0F13001C3
:102110000A290AD24F45E5DC07EB870100EB4107AE
:10212000303FDFD445F01005ECE7E90601D46FF04D
:1021300000476C280AD04C2814D0682815D06A288B
:102140000DD074281CD07A281AD01DE062690121B4
:10215000019890476C2802D045F0040514E045F042
:1021600002050DE045F020050AE0626901210198B1
:102170009047682802D045F0080505E045F4006561
:102180006269012101989047C4E9015765283DD053
:1021900019DC58287AD00CDC452837D004DC2528F7
:1021A00026D0412831D131E046282FD047282CD1E4
:1021B0002CE05B2877D0612828D063287CD0642865
:1021C00023D15AE0D0E06F2848D008DC66281DD023
:1021D00067281BD0692821D06E2816D127E07028E7
:1021E00045D0732868D0752847D078280DD14DE0A8
:1021F000A1690B988847054625283FF469AFE16936
:102200000B9888476D1C3FF46AAFB3E023466A46DB
:102210006FF001000B99FFF7BDFB9EE045F0400019
:102220006060A80723464FF0000236D43EE0E8077E
:102230007FF447AF2068011D21600068290501D5A2
:1022400006701BE7290701D5068017E7A90703D504
:10225000F117C0E9006111E706600FE745F04000A3
:102260006060A80723464FF0080216D41EE040F62F
:102270000E0125EA0100606016E045F04000606054
:10228000A80723464FF00A0207D40FE045F04000AC
:102290006060A80708D5234610226FF001000B9953
:1022A000FFF722F959E007E0234610226FF0010002
:1022B0000B99FFF7C4F950E04FF000094F464B4629
:1022C000632802D05B2806D040E0E80601D4012054
:1022D000A06001273AE062690121019890475E28D9
:1022E00005D14FF00109626949460198904721697B
:1022F00039B900210A46534643F82120491C0829D0
:10230000FADBB0B3216969B9C11700EBD16253118F
:102310000AEB830122F01F02821A01200B68904011
:1023200003430B6062690121019890475D28E8D161
:10233000B9F1000F09D00020514651F82020D243B6
:1023400041F82020401C0828F7DB02AB224600970A
:102350006FF001000B99FFF718FA00280CDA401C07
:1023600008D1BBF1000F05D04FF0FF300DB0BDE834
:10237000F08FFFE74046F9E7E90701D108F10108CE
:1023800006444FF0000B79E6CCCCCC0C0EB540F2F5
:10239000334202920022CDE900221346FFF790FC5F
:1023A00003B000BD7F2801D9002208E0064A02EBF5
:1023B0005002C007127800D1120902F00F0201206A
:1023C0009040084070470000489E010870B58C1886
:1023D00010F8015B15F0070301D110F8013B2A1139
:1023E00006D110F8012B03E010F8016B01F8016B26
:1023F0005B1EF9D12B0705D40023521E0DD401F822
:10240000013BFAE710F8013BCB1A921C03E013F8EA
:10241000015B01F8015B521EF9D5A142D8D300201F
:1024200070BD10B50146886B026C12F0500F05D0DC
:10243000026CD20626D500F0DEFB10BD016C41F423
:102440000071016401688A6812F0405F17D1027E52
:10245000AAB9CA6A12F4700F02D08A6852050ED463
:102460004A6822F020024A60016C21F48071016404
:10247000016CC90403D4016C41F00101016400F056
:102480009DFB10BD806BC26CBDE810400846104734
:1024900010B5806B40210164416C41F0040141643E
:1024A00000F0A9FB10BD10B5806B00F0A3FB10BDC0
:1024B00010B5054800F0A3FB044800F0A0FBBDE800
:1024C0001040034800F09BBB6C150020FC26002048
:1024D000B41500204A494A6822F440324A604A68EA
:1024E00043681A434A6001684A6822F480724A606D
:1024F00001684A68036942EA03224A6001684A683F
:1025000022F040724A6001684A6883681A434A6050
:1025100001688A6822F400628A6001688A68C36878
:102520001A438A60816A6FF07062D14214D00168E8
:102530008A6822F070628A6001688A68836A1A4336
:102540008A6001688A6822F040528A6001688A685D
:10255000C36A1A438A6009E001688A6822F07062DF
:102560008A6001688A6822F040528A6001688A683D
:1025700022F002028A6001688A68037E42EA43020E
:102580008A6090F8201089B101684A6842F40062BC
:102590004A6001684A6822F460424A6001684B68F8
:1025A000426A521E43EA42324A6004E001684A68C5
:1025B00022F400624A600168CA6A22F47002CA62A8
:1025C0000168CB6A828B521E43EA0252CA620168DA
:1025D0008A6822F400728A6001688A6890F8303054
:1025E00042EA43228A6001688A6822F480628A6033
:1025F00001688A68406942EA80208860704700006C
:10260000002301402DE9F04399B007463846FEF714
:1026100068FE0546002018901790169015901490AB
:1026200022A13846FEF74BFE88B1402104A8FEF7F0
:102630003BFE1FA0D0E900128068CDE9041206908D
:1026400000246E1E0DF110084FF0640914E04FF0E5
:10265000FF3019B0BDE8F083385D2C280BD1B442AF
:1026600009D204A8FEF73DFE00EB080214A0008882
:10267000108082F80290641CAC42EDD315A916AA12
:10268000CDE9002114A8029017AB18AA04A9384676
:10269000FEF72EFE29463846FEF706FEDDE9143227
:1026A000DDE9161002F012F9D3E700003D0000004A
:1026B00041542B636D644366673D25640000000050
:1026C0002C256400FEE710B5846B204600F0B4FCB6
:1026D0000120207110BD10B5846B204600F088FCED
:1026E0000120207110BD10B5846B206940F00400FA
:1026F0002061204600F0A2FC0120207110BD10B521
:10270000846B206940F004002061204600F072FCD8
:102710000120207110BD10B5806B00F08EFC10BD43
:1027200010B5806B00F065FC10BD0000014800F0A2
:10273000E1BD0000982C0020014800F0DBBD000046
:10274000FC150020014800F0D5BD0000842B0020BE
:10275000014800F0CFBD00005C160020014800F0E9
:10276000C9BD0000E42B00200168CAB2103A18234A
:10277000B2FBF3F2064B9B5CC3656FF30901032ABE
:1027800002D9091D816500E08165806D70470000F8
:102790002669000810B5014600208A6A8B694FF04F
:1027A000C074002B0ED0B3F5005F1AD062B3012ABB
:1027B0002AD0022A28D0032A03D1C96AC90100D528
:1027C000012010BD1AB1012A06D0022AF9D1C96A26
:1027D000C901F6D5012010BDC96AA142FBD1012073
:1027E00010BD52B1012A0AD0022A06D0032AF7D11D
:1027F000C96AA142F4D1012010BD012010BDC96AEF
:10280000C901FBD5012010BD012010BD30B5046801
:10281000256825F480252560046863608368402B63
:1028200004D0036899600068C26030BD03689A6094
:102830000068C16030BD00000149086070470000B9
:1028400050010020704772B6FEE70000014800F01A
:10285000EEBF0000F8AD00202948007815284BD2C3
:10286000DFE800F00B0E1114171A1D202326292C67
:102870002F3235383B3E414447009FED220A7047D6
:102880009FED210A70479FED210A70479FED200AB6
:1028900070479FED200A70479FED1F0A70479FED1C
:1028A0001F0A70479FED1E0A70479FED1E0A704772
:1028B0009FED1D0A70479FED1D0A70479FED1C0A92
:1028C00070479FED1C0A70479FED1B0A70479FEDF4
:1028D0001B0A70479FED1A0A7047B3EE040A70474F
:1028E000B2EE040A7047B1EE040A7047B0EE000A77
:1028F0007047B7EE000A70479FED120A704700005C
:102900003800002000E62A4A0024F44900247449D3
:102910000024F448005043480050C3470050434748
:1029200000409C4600401C4600409C450000FA4484
:1029300000007A440000FA43000048430000C84207
:10294000000048420000000030B500232C4D9FEDF0
:102950002B1A85ED041A9FED2B0A85ED030A85EDF0
:10296000000A002224E000EB8204D5ED040A94ED75
:10297000000AB4EEE00AF1EE10FA01D285ED040A85
:1029800094ED000AD5ED030AB4EEE00AF1EE10FA78
:1029900001DD85ED030A00EE103AD4ED000AB8EE31
:1029A000400A30EE800ABCEEC00A10EE103A521C0B
:1029B0008A42D8D3B3FBF1F000EE100ADFED120A21
:1029C000B8EE400A20EE200AC0EE011AC5ED001A4A
:1029D00095ED030A60EE201A81EE810A85ED030A67
:1029E000D5ED041A61EEA01AC1EE810AC5ED040A04
:1029F00030EE600A85ED010A30BD000000F07F4531
:102A000054010020000000003333534070470000A1
:102A100010B590F83C20012A1FD0012200F83C2F6D
:102A20000F4A536823F01F03536053680C68234315
:102A30005360536823F44043536053684C68234306
:102A40005360536823F470635360536889680B4381
:102A5000536000210170002010BD022010BD000055
:102A60000023014078B50024009490F83C20012A0E
:102A700019D0012280F83C200A680725092A14D9B8
:102A80000368DE680A3A02EB42029540AE43DE601C
:102A90000A788B680A3A02EB420293400268D568D2
:102AA0002B43D36011E0022078BD03681E6902EB5E
:102AB00042029540AE431E610A788B6802EB4202E7
:102AC0009340026815692B4313614A681F25072A42
:102AD00013D203685E6B521E02EB82029540AE4336
:102AE0005E630A8893B20A79521E02EB8202934017
:102AF0000268556B2B43536328E00D2A13D20368F9
:102B00001E6BD21F02EB82029540AE431E630A8801
:102B100093B20A79D21F02EB820293400268156BCE
:102B20002B43136312E00368DE6A0D3A02EB820264
:102B30009540AE43DE620A8893B20A790D3A02EB01
:102B4000820293400268D56A2B43D362174A184B1E
:102B500005689D4206D10D68122D03D1556845F4D4
:102B60008005556005689D421BD10B68102B01D074
:102B7000112B16D1536843F40003536009681029E0
:102B80000FD10C490C4A0968B1FBF2F101EB81014C
:102B90004900009102E00099491E00910099002926
:102BA000F9D180F83C40002078BD000000230140AE
:102BB000002001400C00002040420F0070B5044688
:102BC0000A48A16B0A4D814201D10120A880074823
:102BD0006030814202D1603800F033FB034848384E
:102BE000844202D100F008F8688070BDFC15002016
:102BF00038000020704770470068C06C704770B59F
:102C0000044620680168C1F340014268C2F34012E3
:102C100000292AD04AB3216CC90603D4216C41F49F
:102C200000712164816811F0405F17D1217EA9B93C
:102C3000C16A11F4700F02D0816849050ED4416851
:102C400021F020014160206C20F480702064206C11
:102C5000C00403D4206C40F0010020642046FFF73C
:102C6000ADFF21686FF01200086020680168C1F3B1
:102C700080014268C2F3C01289B382B3216CC906D5
:102C800003D4216C41F400512164816811F4401F88
:102C90001ED1816B11F4401F02D08168490517D401
:102CA0004168490514D4816811F0405F10D1217E3C
:102CB00071B9416821F080014160206C20F480509E
:102CC0002064206CC00503D4206C40F00100206417
:102CD0002046FFF79BFE21686FF00C00086020681B
:102CE0000168C1F300014268C2F3801271B16AB198
:102CF0000068C0070AD0206C40F480302064204671
:102D000000F046F821686FF0010008602068016853
:102D1000C1F340114268C2F3806200290DD0002A3D
:102D20000BD0616C41F0020161646FF02005056019
:102D30002046FFF760FF2068056070BD70B504464F
:102D40000026002C03D0206C002510B107E00120E4
:102D500070BD204600F01DF8656484F83C50206C7E
:102D6000C00610D4206C20F4885040F0020020648B
:102D70002046FFF7AFFB6564206C20F0020040F0B6
:102D80000100206400E0012684F83C50304670BD0C
:102D900070477047F8B5044613460022009294F835
:102DA0003C00012807D0012084F83C002068856899
:102DB000ED0702D014E00220F8BD856845F001055A
:102DC00085603E483E4D0068B0FBF5F000EB4000EA
:102DD000009002E00098401E009000980028F9D171
:102DE00020688568ED0766D0256C40F20166B54322
:102DF00045F4807525644068400505D5206C20F4B5
:102E0000005040F480502064206CC00404D5606CF5
:102E100020F00600606400E0626484F83C20294EE3
:102E2000A26B2948D063A26B28481064A26B284883
:102E3000D06422686FF0220010602068426842F07F
:102E4000806242602068826842F4807282602068FA
:102E50000A464C30A56B0146284600F09DFB706881
:102E60001C49C00607D02068884224D1816811F02F
:102E7000405F1CD01FE0206888420FD0164A904265
:102E800003D1D1F80423D20608D0144A904212D1BB
:102E9000D1F8041301F01F0110290CD2816811F040
:102EA000405F08D1816841F08041816003E0816822
:102EB00041F0804181600020F8BD00000C0000203E
:102EC00040420F000023014023240008A7240008EB
:102ED000912400080020014000210140002201400F
:102EE00018B50022009290F83C10012907D001216A
:102EF00080F83C1001688B68DB0702D014E00220E8
:102F000018BD8B6843F001038B603249324B09686E
:102F1000B1FBF3F101EB4101009102E00099491E80
:102F2000009100990029F9D101688B68DB074FD027
:102F3000036C40F20164A34343F4807303644B6861
:102F40005B0505D5036C23F4005343F480530364FD
:102F5000036CDB0404D5436C23F00603436400E0F8
:102F6000426480F83C201D4A6FF022030B60016828
:102F70004B681B4C23434B605168CA06194907D064
:102F80000068884224D1816811F0405F1CD01FE0A6
:102F9000006888420FD0144A904203D1D1F804232C
:102FA000D20608D0114A904212D1D1F8041301F090
:102FB0001F0110290CD2816811F0405F08D181688F
:102FC00041F08041816003E0816841F0804181608F
:102FD000002018BD0C00002040420F0000230140DB
:102FE0002000000400200140002101400022014097
:102FF00070477047704770B54379012B1AD001268E
:1030000046710223037103681D6840F6FE74944004
:10301000A543D1E900410C4394402C431C60016856
:103020000B68C0249440A3430B60067100214171DA
:10303000002070BD022070BD70477047704770B5AA
:103040000446002C03D02079002510B105E00120B2
:1030500070BD6571204600F007F8022020712561DF
:1030600001202071002070BD704718B504680094DD
:1030700000680029104405D01430009000980360C7
:10308000002018BD08300090F8E730B54279012AD9
:1030900015D001244471022202710268136804FAF7
:1030A00001F52B43136061B101680A6802F48022C4
:1030B0000B6803F46013B2F5802F12D018E00220E1
:1030C00030BD01680A6802F004020B6803F038039F
:1030D000042A0DD1382B0BD14A6842F001024A6014
:1030E00006E0B3F5601F03D14A6842F002024A606D
:1030F000047100214171002030BD00002DE9F04134
:10310000044606980D46174600226179012920D011
:103110000126667102212171F5B1D4F80CC0334942
:10312000CCF83C10D4F80CC03149CCF84010D4F89D
:103130000CC03049CCF84C102168D1F800C04CF0DC
:10314000805CC1F800C060B304282DD0082830D1BD
:103150002DE00220BDE8F081D4F808C02649CCF863
:103160003C10D4F808C02549CCF84010D4F808C069
:103170002349CCF84C102168D1F800C04CF4805C95
:10318000C1F800C020B1042805D0082811D105E0FD
:10319000226808320DE022680C320AE02268103200
:1031A00007E02268143204E02268183201E0226845
:1031B0001C3285B12068016841F000510160394638
:1031C000E06800F0E9F920680168AE403143016031
:1031D00000206071BEE72068016841F40051016081
:1031E0003946A06800F0D8F9EDE70000D7260008BE
:1031F00021270008FF260008C72600081727000817
:10320000E726000870B50446206803684FF4805232
:103210008A409343036020680268012505FA01F3A0
:103220009A430260002906D0E06800F00AF830B145
:103230000421217170BDA06800F003F8F7E7257143
:1032400070BD2DE9F0410446A76D00F0C1FA0546B6
:1032500094F835000026022806D08020606584F8A6
:1032600034600120BDE8F0812068016821F016017A
:1032700001602068416921F080014161206C08B93A
:10328000A06C20B12068016821F00801016020686D
:10329000016821F0010101600BE000F099FA401B88
:1032A000052806D92020343420622670032060705F
:1032B000D8E720680068C007EFD134343F2094F885
:1032C00028108840B8602670012060700020C9E78F
:1032D00090F83510022903D0802141650120704704
:1032E000052180F835100068016821F001010160B6
:1032F000002070472DE9F84304464FF00009CDF84F
:1033000000906F484FF416510068B0FBF1F7A56DBF
:103310002E6894F85C00082202FA00F1314210D0C5
:103320002068016849070CD5016821F0040101609B
:1033300094F85C0002FA00F1A960606D40F00100B1
:10334000606594F85C104FF0010808FA01F0304213
:1033500008D021684969090604D5A860606D40F06D
:103360000200606594F85C1004208840304208D068
:1033700021680968890704D5A860606D40F00400E1
:10338000606594F85C1010208840304220D021689D
:10339000096809071CD5A8602068016849030CD595
:1033A0000068000304D4216C91B1204688470FE0E7
:1033B000A16C69B1204688470AE00168C90503D4B9
:1033C000016821F008010160216C09B1204688479D
:1033D00094F85C102020884030424CD02168096865
:1033E000C90648D5A86094F8350005280BD0206898
:1033F0000168490330D50068000328D4616C51B3DB
:103400002046884737E02068016821F016010160F6
:103410002068416921F080014161206C08B9A06CED
:1034200020B12068016821F00801016094F85C1067
:103430003F208840A86084F8349084F83580216D5E
:1034400000293BD001B02046BDE8F0430847E16BBE
:1034500009B1204688470EE00168C90507D4016814
:1034600021F01001016084F8349084F83580E16B1C
:1034700009B120468847606D00281FD0606DC007E5
:1034800014D0052084F835002068016821F001017E
:1034900001600098401C0090B84203D82068006882
:1034A000C007F6D184F8349084F83580E16C0029A7
:1034B00004D001B02046BDE8F0430847BDE8F883DA
:1034C0000C0000202DE9F041044600F081F905468A
:1034D0005CB1002684F83460022084F8350020684E
:1034E000016821F0010101600DE00120BDE8F081DB
:1034F00000F06EF9401B052805D9202060650320E7
:1035000084F83500F2E720680068C007F0D1216830
:103510000A6820480240D4E901031843D4E903357E
:103520002B43184363691843A3691843E36918439D
:10353000236A18431043626A042A03D1D4E90B2397
:103540001A43104308602068406920F00700656A4C
:1035500029460543012704290DD1A06A0543E06AE5
:1035600048B12046FFF716F928B14020606584F87D
:1035700035700120BAE7206845612046FFF7F4F86E
:1035800094F85C203F2191408160666584F8357035
:103590000020ABE73F8010F02DE9F0410446002504
:1035A000A66D94F8340001280DD0012084F8340071
:1035B00094F835700020012F07D084F834000225DC
:1035C0002846BDE8F0810220FBE7022784F8357029
:1035D00060652046FFF71AF994F85C103F20884098
:1035E000B0602068016841F016010160206C20B1D4
:1035F0002068016841F0080101602068016841F01D
:1036000001010160DCE700002DE9F84F0022DFF83E
:1036100080A14FF003084FF00F090AF1040B0125B8
:1036200095400B682B40AB4272D14C68012C05D001
:10363000022C03D0112C01D0122C10D1866854001A
:1036400008FA04F7BE43CF68A74037438760446851
:10365000AC430D79C5F30015954025434560C4681A
:10366000570008FA07F5AC438E68BE402643C66093
:103670004C68022C01D0122C12D1D40800EB840C1F
:10368000DCF820605407E40E09FA04FE26EA0E0670
:10369000D1F810E00EFA04FE4EEA060ECCF820E057
:1036A0000468AC430D7905F00305BD402543056072
:1036B0004C68E40065D5374C256845F480452560A5
:1036C000246804F480440094334C22F0030525441C
:1036D000D5F808789407260F09FA06F4A7432F4C6B
:1036E000A04201D1002424E02D4CA04201D10124AC
:1036F0001FE02C4CA04201D102241AE02A4CA04227
:1037000001D1032415E0294CA04202D1042410E089
:1037100037E0274CA04201D105240AE0254CA04205
:1037200001D1062405E0244CA04201D1072400E089
:103730000824B4403C43C5F80848DAF800409C43EC
:103740004D68ED0300D51C43CAF80040DBF800408B
:103750009C434D68AD0300D51C43CBF800400C4D95
:1037600008352C689C434E68F60200D51C432C603B
:10377000074D0C352C689C434E68B60200D51C439F
:103780002C60521C102AFFF44AAFBDE8F88F0000ED
:10379000003C01404438024000300140000002403B
:1037A0000004024000080240000C024000100240E9
:1037B0000014024000180240001C0240426931EA35
:1037C000020201D0816170470904816170470000E5
:1037D00001488068704700000000002070B5044672
:1037E000002C11D021684CF6CC400860216845F2CD
:1037F00055500860D4E9001048602168A0688860CE
:10380000FFF7E6FF054608E0012070BDFFF7E0FF87
:10381000401B302801D9032070BD2068C0680028F3
:10382000F4D121684AF6AA200860002070BD006823
:103830004AF6AA2101600020704700000248816812
:1038400002781144816070470000002010B50B48D9
:10385000016841F400710160016841F48061016018
:10386000016841F480710160032000F073F80020CA
:1038700000F006F800F026F8002010BD003C0240E1
:1038800070B504460D4D4FF47A712878B1FBF0F015
:103890000B490968B1FBF0F000F018FC08B10120F9
:1038A00070BD102C07D200222146501E00F032F8C5
:1038B0006C60002070BD012070BD00000000002081
:1038C0000C00002082B00B48016841F48041016087
:1038D000006800F4804001900648001F016841F034
:1038E00080510160006800F080500190052002B016
:1038F00000F030B844380240002809DB00F01F0215
:10390000012191404009800000F1E020C0F8001141
:1039100070470000F0B40D460D4B1B68C3F3022343
:10392000C3F10704042C00D90424191D072901D26E
:10393000002300E0DB1E012606FA04F1491E29409F
:1039400099409E40761E16403143F0BC01F0C2BE45
:103950000CED00E000F00701054A10684FF6FF0388
:10396000184040EA012003490843106070470000F6
:103970000CED00E00000FA052DE9F84304464FF095
:10398000010820684FF00007C10701D140072BD57F
:10399000DFF81891C9F86870FFF71AFF0646444D22
:1039A00007E0FFF715FF801B022802D90320BDE8BE
:1039B000F88328680001F4D46068217A800140EA25
:1039C00001703B4984310860C9F86880FFF700FF47
:1039D000064606E0FFF7FCFE801B022801D9032003
:1039E000E5E728680001F5D52078800753D53048F1
:1039F0004030016841F080510160006800F0805063
:103A000000902C4D286840F480702860FFF7E0FE9D
:103A1000064606E0FFF7DCFE801B022801D90320E2
:103A2000C5E72868C005F5D5214D7035286800F434
:103A30004070F8B1A18901F4407181421AD0286820
:103A400020F440701C49C1F800800F60286028688D
:103A5000C0070FD0FFF7BCFE064641F2883706E0EC
:103A6000FFF7B6FE801BB84201D903209FE7286804
:103A70008007F5D5E0680E49C0F301220831032A1A
:103A80000BD0086820F4F81008602868A189C1F3F9
:103A90000B0108432860002089E70A68074B22F4DD
:103AA000F812184002430A60EFE7000000004742A6
:103AB0000038024000700040400E4742FFFCFF0FFC
:103AC0002DE9F04704460D46002C13D0DFF828916D
:103AD000D9F80000EFB200F00F00A8420CD289F82C
:103AE0000070D9F8000000F00F00A84204D00120B7
:103AF000BDE8F0870120FBE72068404E810712D522
:103B0000400703D5306840F4E0503060207800076B
:103B100003D5306840F4604030603068A16820F020
:103B2000F000084330602078C00731D03349606826
:103B30000839012808D002280BD0032809D00968C9
:103B400089070BD40120D3E70968890306D4012033
:103B5000CEE70968890101D40120C9E7316821F065
:103B6000030101433160FFF733FE804641F2883A9A
:103B700007E0FFF72DFEA0EB0800504501D9032018
:103B8000B6E73068616800F00C00B0EB810FF0D14F
:103B9000D9F8000000F00F00A84209D989F8007098
:103BA000D9F8000000F00F00A84201D001209FE7E3
:103BB0002078400705D53068E16820F4E0500843DC
:103BC00030602078000706D53068216920F4604015
:103BD00040EAC100306000F03FF83168084AC1F3A4
:103BE0000311515CC8400749086007480068FFF7A7
:103BF00047FE00207CE70000003C024008380240FD
:103C00002E6900080C000020040000200148006814
:103C1000704700000C00002000B5FFF7F7FF0449D3
:103C20000968044AC1F38221515CC84000BD00000C
:103C3000083802403E69000800B5FFF7E7FF044975
:103C40000968044AC1F34231515CC84000BD00001C
:103C5000083802403E69000810B51748006810F0A7
:103C60000C01164816D04310042912D0082911D18E
:103C7000114C241F216801F03F02216849020AD536
:103C80002068C0F38810A0FB03010023FDF7D4FADD
:103C900009E0184610BD21680023C1F38811A1FB7B
:103CA0000001FDF7C9FA2168C1F30141491C49002F
:103CB000B0FBF1F010BD0000083802400024F40011
:103CC0002DE9F84F0446002C13D02078DFF8AC83A0
:103CD000C007A8F1040556D008F104000168C1F33B
:103CE000810101290CD00068C0F38100022803D0B3
:103CF0000DE00120BDE8F88FD8F80000400206D59D
:103D0000286880033FD5606870BB0120F2E76068D7
:103D1000B0F5803F10D0B0F5A02F12D0286820F465
:103D200080302860286820F4802028606068E0B136
:103D3000FFF74EFD064614E0286840F48030286006
:103D4000F4E7286840F480202860286840F4803038
:103D50002860EBE7FFF73CFD801B642801D90320B6
:103D6000C8E728688003F5D50DE0FFF731FD06466A
:103D700006E0FFF72DFD801B642801D90320B9E779
:103D800028688003F5D42078BD4F80074FF00009E4
:103D900048D5BA48001D016811F00C0F08D0006822
:103DA000C0F38100022813D1D8F8000040020FD4DC
:103DB0002868800704D5E068012801D0012099E730
:103DC0002868216920F0F80040EAC100286029E055
:103DD000E068B8B101203860FFF7FAFC064606E05B
:103DE000FFF7F6FC801B022801D9032082E7286830
:103DF0008007F5D52868216920F0F80040EAC10065
:103E000028600FE0C7F80090FFF7E2FC064606E0E6
:103E1000FFF7DEFC801B022801D903206AE728682F
:103E20008007F5D42078000729D5DFF850A29548FF
:103E300061690AF1700A89B101210160FFF7C8FCCC
:103E4000064606E0FFF7C4FC801B022801D90320C8
:103E500050E7DAF800008007F4D510E0C0F80090D1
:103E6000FFF7B6FC064606E0FFF7B2FC801B02280F
:103E700001D903203EE7DAF800008007F4D4207867
:103E800040076ED500267D483C300068C0000AD44B
:103E90007A483C30016841F080510160006800F0D0
:103EA000805000900126DFF8E0B1DBF80000C0058B
:103EB00015D4DBF8000040F48070CBF80000FFF769
:103EC00087FC824607E0FFF783FCA0EB0A0002288C
:103ED00001D903200EE7DBF80000C005F3D5DFF8B9
:103EE0009CB1A0680BF16C0B012813D0052818D0E9
:103EF000DBF8000020F00100CBF80000DBF8000048
:103F000020F00400CBF80000A06830B3FFF760FC9D
:103F100082461DE0DBF8000040F00100CBF8000015
:103F2000F2E7DBF8000040F00400CBF80000DBF81B
:103F3000000040F00100CBF80000E5E7FFF748FC87
:103F4000A0EB0A0141F28830814201D90320D1E679
:103F5000DBF800008007F1D512E0FFF739FC82465C
:103F60000AE015E0FFF734FCA0EB0A0141F28830CB
:103F7000814201D90320BDE6DBF800008007F1D4BF
:103F8000012E05D13D483C30016821F0805101608F
:103F9000A069B8B33949091D0968C1F38101022933
:103FA00047D0022805D0C7F86090FFF711FC0446FF
:103FB0003BE0C7F86090FFF70BFC064606E0FFF712
:103FC00007FC801B022801D9032093E628688001A2
:103FD000F5D4D4E907010843616AA26A4FF0FF33C0
:103FE000890103EB520241EA0241084394F82C1084
:103FF00040EA0160C8F8000001203866FFF7E8FBDE
:10400000044607E037E0FFF7E3FB001B022801D975
:1040100003206FE628688001F5D52CE0FFF7D8FB78
:10402000001B022801D9032064E628688001F5D42A
:1040300021E001281DD0D8F80000E26900F48001D9
:10404000914214D1226A00F03F0191420FD147F60C
:10405000C071626A0140914209D1A26A00F4403104
:10406000914204D1E16A00F07060884203D00120DF
:1040700040E601203EE600203CE600000438024015
:1040800000004742800E4742007000404FF0E021A0
:10409000042804D0086920F004000861704708690A
:1040A00040F004000861704710B5074C0A212068F1
:1040B000B0FBF1F201FB1200002801D100F094FEE8
:1040C0002068401C206010BD1000002010B5401E6C
:1040D000B0F1807F01D3012010BD4FF0E02460617A
:1040E0000F21601701F0F6FA0020A061072020617F
:1040F000002010BD10B5FFF7D7FF10BD70B590F8C8
:104100003C20012A31D0012680F83C60022280F850
:104110003D2002685468936824F070050C682C43B5
:104120005460134C0268A24214D0B2F1804F11D0F7
:10413000104CA2420ED0104CA2420BD00F4CA24207
:1041400008D00F4CA24205D00E4CA24202D00E4C19
:10415000A24204D123F080034968194391603C30A6
:10416000467000210170002070BD022070BD00006B
:10417000000001400004004000080040000C004026
:1041800000040140004001400018004010B5044602
:10419000002C03D094F83D0010B107E0012010BDC1
:1041A000002084F83C00204600F00CF8022084F83F
:1041B0003D00211D206800F0B3FE012084F83D0081
:1041C000002010BD7047022180F83D1001688A6808
:1041D00002F00702062A03D00A6842F001020A60D0
:1041E000012180F83D1000207047022180F83D1029
:1041F00001680A6A41F211131A4207D10A6A9B1038
:104200001A4203D10A6822F001020A60012180F8F3
:104210003D100020704770B5044694F83C0001281A
:1042200017D0012584F83C50022084F83D00206816
:10423000826822F0770222F47F4282600868502868
:1042400031D00DDC20284DD005DCB0B310284ED184
:1042500048E0022070BD302844D0402847D137E0E4
:1042600060282BD0702806D0B0F5805F3FD0B0F525
:10427000005F3CD10BE0CB68D1E90121206800F060
:10428000C2FE2068816841F0770181602FE0CB6831
:10429000D1E90121206800F0B6FE2068816841F470
:1042A0008041816023E0CA684968206800F08EFF81
:1042B0005021206800F0B1FE19E013E0CA68496897
:1042C000206800F094FF6021206800F0A6FE0EE058
:1042D000CA684968206800F079FF4021206800F032
:1042E0009CFE04E022680146104600F096FE3C3435
:1042F00065700020207070BD70B5044694F83C00D5
:1043000001280DD0012584F83C50022084F83D009E
:1043100042B1042A0AD0082A0CD00C2A11D10DE08F
:10432000022070BD206800F081FE0AE0206800F0E5
:10433000B1FE06E0206800F0E7FE02E0206800F031
:104340001BFF3C3465700020207070BD10B5044622
:10435000002C03D094F83D0010B107E0012010BDFF
:10436000002084F83C00204600F00CF8022084F87D
:104370003D00211D206800F0D3FD012084F83D00A0
:10438000002010BD7047000010B5044601222068CF
:1043900000F02CFE0B482168814202D00A4881427D
:1043A00003D1486C40F4004048642068816801F003
:1043B0000701062903D0016841F0010101600020D6
:1043C00010BD0000000001400004014010B504468B
:1043D00020684169C1F3C01194F83920212A0BD11A
:1043E00051B1416921F080014161206B08B1FEF7B4
:1043F00028FF204600F09AFF20684169C1F3801130
:1044000094F83A20222A0BD151B1416921F04001A0
:104410004161606B08B1FEF714FF204600F06BFFAE
:10442000002010BD7047000070B504462268106877
:10443000D168526900F00F03002B08D1850606D51C
:104440008D0604D52046BDE8704000F078BF002BF3
:1044500060D002F0010301F490751D435AD0C507E6
:1044600005D0CD0503D5E56B45F00105E5634507AE
:1044700005D5D50703D0E56B45F00205E563850753
:1044800005D5D20703D0E26B42F00402E2630207D3
:1044900007D501F020021A4303D0E26B42F0080274
:1044A000E263E26B002A2AD0800604D5880602D592
:1044B000204600F044FF20684069C0F38010E16BA3
:1044C000090700D400B3204600F015FF20684169B9
:1044D000490615D5416921F040014161606B58B131
:1044E00015490165606BFEF7F3FE002807D0606B8D
:1044F000016DBDE8704008472046FFF793FF70BD8F
:104500002046FFF78FFF70BD2046FFF78BFF00208E
:10451000E06370BD020606D50A0604D52046BDE854
:10452000704001F04BB84006F3D54806F1D520465F
:10453000BDE8704000F0EDBE1F52000870B50446A3
:10454000002C04D094F83900002510B106E00120B9
:1045500070BD84F83850204600F022F8242084F8FA
:1045600039002068C16821F40051C160204600F084
:1045700035FF2068016921F490410161206841699B
:1045800021F02A0141612068C16841F40051C160F5
:10459000E563202084F8390084F83A00002070BDDB
:1045A0007047000037B582B00446134694F83A00CD
:1045B000202802D0022005B030BD039AA2B39BB3DD
:1045C00094F83800012832D0012084F83800A26223
:1045D000A3850025E563222084F83A00616B154825
:1045E000C863616B14480864616B1448C864606BED
:1045F00005652168606B091DFEF7CEFF2068016824
:104600004168019184F83850C16841F48071C160FB
:104610002068416941F0010141612068416941F030
:10462000400141610020C6E7FFE70120C3E7022007
:10463000C1E7000079520008B55200082F52000867
:1046400070B504460E492068884218D12046FFF70D
:10465000BDFE606B006840680A49C0F58060086074
:1046600000F0DCF94FF4806529460748FCF71CFE92
:104670002A462046BDE870400349FFF793BF70BD4E
:1046800000100140440000204427002070472DE91D
:10469000F84304460D4690461E4694F839002028FB
:1046A00002D00220BDE8F883D5B1B8F1000F17D0D1
:1046B00094F83800012815D0012084F838004FF014
:1046C0000009C4F83C90212084F83900FFF780F8F5
:1046D0000746A4F82480A4F8268084F838902DE0BA
:1046E0000120DFE70220DDE7E08C401EE084A068C7
:1046F000B0F5805F09D03B4600228021204600961D
:1047000000F08FFFB0B10320CCE73B4600228021B0
:104710002046009600F085FF08B10320C2E72888F4
:104720002168C0F308004860206908B16D1C05E0ED
:10473000AD1C03E0216815F8010B4860E08C0028EF
:10474000D2D13B46002240212046009600F069FF6E
:1047500008B10320A6E7202084F839000020A1E753
:10476000F7B5044694F83900202801D00220FEBD98
:10477000019979B372B394F8380001282DD0012043
:1047800084F838002162A284E2840025E5632120B8
:1047900084F83900236B1248D863236B11481864DE
:1047A000236B1148D864206B056520681346001DF3
:1047B000266B02463046FEF7EFFE21686FF04000A0
:1047C000086084F838502068416941F080014161F7
:1047D0000020FEBDFFE70120FBE70220F9E7000013
:1047E000BF520008ED5200082F5200087047704772
:1047F000FEE7000010B5094807490160002141604B
:1048000040F6FF718160FEF7E9FF002803D0BDE8A4
:104810001040FEF718B810BD00300040F8AD002081
:1048200010B501F093FD4FF4E13001F027FE01F0E7
:104830001FFD01F03BFCBDE81040FFF7DBBF7047F8
:1048400070B50320FDF7F8FFFFF7EAFFFFF7F7FF6A
:104850000E480068012818DB02F063F84FF47A7400
:10486000B0FBF4F104FB110502F05BF8B0FBF4F1CE
:104870002A4607A000F01EFF09A10FA000F01AFFB2
:10488000BDE870400FA000F015BF70BD50010020C2
:104890005B493A2025642E253033645D20000000FA
:1048A0004A756E20313120323032332032323A3282
:1048B000363A31360000000056455253494F4E3DBE
:1048C000257300000D0A0000FEE7FEE770B5044600
:1048D000084611463F4D4FF40066082C5DD2DFE8D4
:1048E00004F05C04090C141C233300213A48FEF741
:1048F000CCFB6CE001F09AFF69E080B20A46014609
:104900003223002001F0B4FF61E080B20A46014684
:10491000DBB2002001F02EFF59E080B20A460146CA
:10492000002001F065FF52E02C4801880029FCD0EE
:1049300000210180002435F8141029A000F0BAFEEF
:10494000641CB442F7DB42E00020264935F8102011
:1049500000EE102A01EB8002B8EE400A82ED000A58
:10496000401CB042F2DBFDF777FF002231461D48C4
:1049700001F032FB054600244FF4806655F8240010
:10498000FCF74EFD41EC100B17A053EC102B00F080
:1049900091FE641CB442F1DB19E014480068012860
:1049A00015DB01F0BEFF4FF47A74B0FBF4F104FBA9
:1049B000110501F0B6FFB0FBF4F12A460CA000F09F
:1049C00079FE0FA000F076FE12A000F073FE00202A
:1049D00070BD0000FC160020842C00203C0000204C
:1049E00025640A00F82D002025660A0050010020E9
:1049F0005B493A2025642E253033645D2000000099
:104A00007761726E3A504152414D20494E56414CA9
:104A1000494421000D0A0000704700002DE9F84FBD
:104A20000020DD4A1178AA2904D0BDE8F84F1046CD
:104A3000FDF7E8BD9478517844EA012381F0AA019A
:104A4000614004E01418E4786140401CC0B2984210
:104A5000F8D3D2480068104410F8010C88427DD188
:104A6000D0789F287AD1CC481179AA2690F805A051
:104A70008379C279077A0524407AC94D4FF000093D
:104A80004FF001084FF0020C4FF0060B7F2966D063
:104A90001FDC792959D07E2960D100202E70102189
:104AA0006970AC7085F803807F212971BD4FB9789A
:104AB00069717978A97139790824E971DFF8E88298
:104AC000B8F8001000297DD02602B84ADFF8E0C20D
:104AD000EDE0802919D0882940D1BAF1000F3DD1ED
:104AE00040EA0364100440EA07200443B4F5613F40
:104AF0000AD068DCB4F5965FFAD07DDCB4F5966F29
:104B0000F6D0B4F5166F78D126E12E7085F80190B5
:104B100085F802B085F8038080202871A5480068D8
:104B2000010E6971010CA971010AE971092128724C
:104B30009B4801F03DFD68720A2201B0FF23BDE8E9
:104B4000F04F97499C48FFF7A2BD00202E7085F8D2
:104B5000018085F802C085F8038001E0E1E01EE0F5
:104B6000792105242971954A0AE032F810100B0AC0
:104B7000611C2B550346401C12F813304C1C6B541F
:104B80008028F2D32146864801F012FD2855641C86
:104B9000A2B2BDE8F84F82498748FFF7E1BD012482
:104BA000874981F800A08B704A70CF700871AAF114
:104BB0000101042900D3002442EA03214FF6E85200
:104BC000914201E09AE0B5E000D900247A1E642AFF
:104BD00000D30024212800D900242CB30091FCF735
:104BE00012FC9FED781B53EC112BFCF79DFBFCF79F
:104BF0002AFC00EE100A01E095E0AFE0DFED730A59
:104C000020EE200ABCEEC00A10EE100A80B2BAF103
:104C1000010F1FD0BAF1020F20D0BAF1030F24D038
:104C2000BAF1040F28D000242E7085F801900320DB
:104C3000A87085F803807F20287159466C71584808
:104C400001F0B6FCA8710722BDE8F84F54495A4854
:104C5000FFF786BD009901F0E9FDE5E70146FBB2EB
:104C60000020009A01F004FEDEE70146FBB20020BE
:104C7000009A01F07FFDD7E701460020009A01F07D
:104C8000B7FDD1E732F810100B0A611C2B55034613
:104C9000401C32F813304C1C6B5432F8141000EEE8
:104CA000101A0CEB8401B8EE400A81ED000AB04204
:104CB000E8D3FDF7D1FD002231463D4801F08CF9E3
:104CC0004348F2EE040A90ED000A20EE200ABCEE02
:104CD000C00A10EE100A020ABA7010EE100A7870BC
:104CE0003C4991ED000A20EE200ABCEEC00A10EE0D
:104CF000101A39716A71A871E97105E028484FF4FA
:104D000080510830FCF7D0FA2146254801F050FCCC
:104D10002855641CA2B222492748FFF721FDA8F8B4
:104D20000090BDE8F88FB4F5165F15D0B4F5E13FFB
:104D300014D111E02848211A84420DD006DCB4F5C4
:104D4000E12F09D0B4F5612F08D105E023480818F8
:104D500002D02349C84201D1012700E000272E706C
:104D600085F801900320A8708820E87085F80490E9
:104D700006216F710A4801F01BFCA87107224FF051
:104D8000FF3307490C48FFF782FC002FC9D02046AB
:104D9000BDE8F84F01F072BB44270020440000201A
:104DA0006C0100203E0000203C000020FC1600208A
:104DB000F82D0020107AFF1F442B0020F82C002033
:104DC00048010020000000000080404000F07F45C6
:104DD0005C0100205801002060E31600E05EF8FF4F
:104DE000C0BDF0FF704700002DE9F04100240B4FDB
:104DF0003E1D04EB440006EB80053A686968914269
:104E000006D156F820008047D5E9010108446860C2
:104E1000641CE4B2032CECD3BDE8F0811000002048
:104E200010B5FEF70BFDBDE81040FFF763B90000B9
:104E300030B597B030210BA8FCF736FA142106A83C
:104E4000FCF732FA002402940394049405942B484E
:104E5000016841F080510160006800F080500190CD
:104E60002748016841F480410160006800F48040F7
:104E7000019009200B904FF480300C90012010908D
:104E8000022511958005129004201390A8211491F9
:104E9000159516900BA8FEF713FF08B1FDF7D3FC8C
:104EA0000F200690079508944FF4A05009904FF4F6
:104EB00080500A90052106A8FEF702FE08B1FDF712
:104EC000C2FC02954FF40070059002A8FEF754FD55
:104ED00008B1FDF7B8FCFEF799FE4FF47A71B0FB0C
:104EE000F1F0FFF7F3F80420FFF7D0F800221146A5
:104EF000501EFEF70FFD17B030BD000040380240D5
:104F0000007000400548016841F4700101600349E8
:104F10004FF00060803908607047000088ED00E0C5
:104F20002DE9F0410268264D264E274FDFF89CC040
:104F3000274B4FF08048A84209D0404507D0B042E7
:104F400005D0B84203D0604501D0984203D122F089
:104F500070044A682243A8421BD0404519D0B04291
:104F600017D0B84215D0604513D0984211D0194CD3
:104F7000A0420ED0184CA0420BD0184CA04208D032
:104F8000174CA04205D0174CA04202D0164CA042AC
:104F900003D122F44074CA6822434C6922F0800293
:104FA000224302608A68C2620A688262A84201D013
:104FB000984201D10969016301214161BDE8F08195
:104FC000000001400004004000080040000C0040C8
:104FD00000040140004001400044014000480140FD
:104FE00000180040001C00400020004010B501F0F7
:104FF0001F0101238B40046A9C430462036A8A40B8
:105000001343036210BD10B5846824F47F4442EA60
:1050100003220A432243826010BD826822F070029C
:105020000A4342F00701816070470000F0B5026A50
:1050300022F001020262026A4368846924F070046B
:1050400024F003050C682C4322F002058A682A43E9
:105050000E4E0F4FB04201D0B84205D122F00805E4
:10506000CA682A4322F00402B04201D0B84207D1F4
:1050700023F4807323F400734D691D438B692B4324
:1050800043608461496841630262F0BD00000140F1
:1050900000040140F0B5026A22F010020262036AC5
:1050A0004268846924F4E04424F440740D6844EABE
:1050B000052423F020038D6843EA0513104D114E9B
:1050C000A84201D0B04206D123F08003CF6843EA62
:1050D000071323F04003A84201D0B04209D122F4C3
:1050E000806222F400624D6942EA85028D6942EADB
:1050F000850242608461496881630362F0BD0000FB
:105100000000014000040140F0B5026A22F4807200
:105110000262026A4368C46924F0700424F0030543
:105120000C682C4322F400728D6842EA0522104D6F
:10513000104EA84201D0B04206D122F40062CF68DE
:1051400042EA072222F48062A84201D0B04209D18B
:1051500023F4805323F400534D6943EA05138D690A
:1051600043EA05134360C4614968C1630262F0BD4C
:10517000000001400004014030B5026A22F4805270
:105180000262046A4268C36923F4E04323F4407373
:105190000D6843EA052324F400548D6844EA05347D
:1051A000084DA84202D0084DA84204D122F4804202
:1051B0004D6942EA85124260C36149680164046234
:1051C00030BD0000000001400004014010B5036A3A
:1051D000046A24F001040462846924F0F00444EABF
:1051E000021423F00A020A438461026210BD10B562
:1051F000036A23F0100303628469036A24F4704491
:1052000044EA023223F0A00343EA01118261016201
:1052100010BD7047FDF71ABB002001F071BB10B53F
:10522000806B0021C185C184FFF7FCF810BD70B50B
:10523000846B20684069C0F3C01094F839100025D1
:10524000212904D118B1E584204600F06FF82068C8
:105250004069C0F3801094F83A10222904D118B1A3
:10526000E585204600F047F8E06B40F01000E06371
:105270002046FFF7D7F870BD10B50146886B096866
:105280000968C90513D40021C1850168CA6822F4E0
:105290008072CA6001684A6922F001024A610168AD
:1052A0004A6922F040024A61202180F83A10FFF753
:1052B000C7F910BD10B5806BFFF7E8F910BD10B548
:1052C0000146886B09680968C9050CD40021C184AE
:1052D00001684A6922F080024A610068C16841F0B1
:1052E0004001C16010BDFFF781FA10BD10B5806BA1
:1052F000FFF77DFA10BD0168CA6822F49072CA6097
:1053000001684A6922F001024A61202180F83A10BE
:10531000704710B50168CA6822F04002CA602021B7
:1053200080F83910FFF762FA002010BD0168CA68E2
:1053300022F0C002CA60202180F83910704710B5F1
:1053400090F83A10222901D0022010BD8168B1F5F1
:10535000805F11D0016919B30168496801F07F03CA
:10536000816A4A1C82620B70C18D491E0904090CB6
:10537000C1851CD0002010BD816A02693AB1026863
:105380005268D2B20A80816A491C8162ECE70268E5
:105390005268C2F308020A80816A891C8162E3E7CD
:1053A00001684A68816A4B1C83620A70DCE7016805
:1053B000CA6822F02002CA600168CA6822F48072BA
:1053C000CA6001684A6922F001024A61202180F81E
:1053D0003A10FFF735F9002010BD00002DE9F0412B
:1053E000044620680169E26821F4405111430161DB
:1053F000A1682069E26901436069104301432068A4
:10540000C26849F20C639A430A43C260206841694A
:10541000A26921F4407111434161E0696549664A1E
:105420001927642532264FF00008B0F5004F32D01E
:105430002068904201D088427ED1FEF7FDFB0146F4
:105440006068830F8200A1FB0701FBF7F5FE0146B0
:10545000B0FBF5F06FF01802504301EB800006EB53
:105460000010B0FBF5F000F0F002B1FBF5F002EB3C
:105470000012B1FBF5F06FF01803584301EB800008
:1054800006EB0010B0FBF5F0216800F00F001044AF
:105490008860BDE8F0812068904201D088422CD11C
:1054A000FEF7CAFB014660680218A1FB070148EB42
:1054B0000803FBF7C1FE0146B0FBF5F00201B1FBAA
:1054C000F5F06FF01803584301EB800006EBC000C5
:1054D000B0FBF5F000F0F80002EB4002B1FBF5F094
:1054E000584301EB800006EBC000B0FBF5F02168EB
:1054F00000F0070010448860CBE7FEF78DFB014603
:1055000060680218A1FB070148EB0803FBF794FE53
:105510000146B0FBF5F00201B1FBF5F06FF01803A6
:10552000584301EB800006EBC000B0FBF5F000F043
:10553000F80002EB400200E00EE0B1FBF5F058434A
:1055400001EB800006EBC000B0FBF5F0216800F035
:105550000700104488609CE7FEF75EFB0146606828
:10556000830F8200A1FB0701FBF766FE0146B0FB3B
:10557000F5F06FF01802504301EB800006EB0010CD
:10558000B0FBF5F000F0F002B1FBF5F002EB001219
:10559000B1FBF5F06FF01803584301EB800006EB08
:1055A0000010B0FBF5F0216800F00F001044886097
:1055B0006FE70000001401400010014090F839101E
:1055C000212901D0022070478168B1F5805F0CD09D
:1055D000016A4A1C0262026809785160C18C491E46
:1055E0000904090CC18410D019E0016A0268098815
:1055F000C1F308015160016919B1016A491C0162D6
:10560000ECE7016A891C0162E8E70168CA6822F0D8
:105610008002CA600068C16841F04001C16000209A
:1056200070472DE9F04104460E4617469846069D00
:105630001DE0681C1BD02DB1FEF7CAF8A0EB0800D6
:10564000A84214D92068C16821F4D071C1602068D3
:10565000416921F001014161202084F8390084F87A
:105660003A00002084F838000320BDE8F08120686B
:10567000006836EA000004D00020B842D9D00020EB
:10568000F3E70120F9E7000008B508480068016861
:10569000C943C90605D40168406800900348FEF775
:1056A000CFFFBDE808400148FEF7BEBE442B0020F6
:1056B000FEE700000FB4054B10B503A9044A029899
:1056C00000F0F2F810BC5DF814FB0000E968000877
:1056D000680100200907090E002804DB00F1E02022
:1056E00080F80014704700F00F0000F1E02080F80F
:1056F000141D704702E008C8121F08C1002AFAD121
:1057000070477047002001E001C1121F002AFBD141
:10571000704700002DE9FF5F82B00021DDE9043011
:10572000020DDDF840B0034318D044F61050A2F249
:10573000FF3242431514119801281FD0A5EB0B002E
:10574000401C5FEA000A4FF000064E4FDFF8389128
:10575000B046504615D5CAF1000413E01198012453
:105760004AA3012801D16FEA0B010298119AC0E9FE
:105770000031C0E9024206B0BDE8F09FCBF1000065
:10578000DFE704460021404A491842EB0450CDE9C6
:10579000001012E0E00707D032463B46404649463B
:1057A000FCF783FB8046894632463B461046194645
:1057B000FCF77BFB06460F466410002CEAD1DDE9BE
:1057C0000401DDE90023BAF1000F06DAFCF76DFBF6
:1057D00042464B46FCF769FB05E0FBF7A5FD424658
:1057E0004B46FBF7A1FD04460E460022284BFCF772
:1057F000E7FB03D84FF0FF30014607E00022254BBE
:1058000020463146FCF7AAFAFCF7C1FB102409E058
:10581000002C0ADB0A220023FBF70EFD039B30322B
:105820001A55641E50EA0102F2D1641C039AC4F1B5
:1058300011031444119A012A03D0012208430DD107
:105840000AE0084304D000204FF0110B119072E7DA
:10585000A3EB0B056D1E0DE05B4504DD4FF0000270
:1058600005F1010504E003DA4FF00002A5F101059E
:10587000002AECD002981199C0E90231C0E9004534
:1058800079E70000000014400000F03F3000000005
:105890000000F0430000E03F30380A2801D2012028
:1058A00070470020704700002DE9FF4F95B09B46E0
:1058B0008946064600250FE2252877D10024274691
:1058C000F84A0121059400E0044316F8013F203B0B
:1058D00001FA03F01042F7D130782A2811D06FF086
:1058E0002F033078A0F13002092A16D8059A44F027
:1058F000020402EB820203EB42021044761C059084
:10590000EFE759F8042B0592002A03DA504244F4D9
:105910000054059044F00204761C30782E2816D1ED
:1059200016F8010F44F004042A280DD06FF02F025E
:105930003078A0F13003092B09D807EB870302EB7D
:105940004303C718761CF3E759F8047B761C3078BC
:105950006C280FD006DC4C2817D068280DD06A2898
:1059600014D104E0742810D07A280FD10DE044F44B
:1059700000140AE044F4801401E044F44014727806
:10598000824202D104F58014761C761C3078662899
:105990000BD013DC582877D009DC002875D04528B7
:1059A000F6D04628F4D047281AD19DE118E06328A4
:1059B00035D0642879D0652812D195E1702873D04C
:1059C00008DC6728F1D069286FD06E280DD06F28C9
:1059D00006D1B5E073282CD0752875D0782874D0FE
:1059E0005A46179990476D1C75E1C4F3025002287E
:1059F00009D003280DD0D9F8001004280DD00D606F
:105A000009F1040967E1D9F80010EA17C1E9005269
:105A1000F6E7D9F800100D80F2E70D70F0E719F8FD
:105A2000041B8DF8001000208DF80100EA460120CB
:105A300003E059F804AB4FF0FF3061074FF000016D
:105A400002D40DE008F101018846B9420FDA804521
:105A5000F8DB1AF808100029F4D108E008F1010178
:105A600088468142FADB1AF808100029F6D1059819
:105A70005B46A0EB080721463846179A00F094FAD7
:105A8000284400EB080507E04DE029E10DE01AF895
:105A9000010B5A4617999047B8F10108F7D25B46B7
:105AA00021463846179A13E142E00A220092C4F3D5
:105AB00002524FF0000A022A08D059F804CB032AF8
:105AC0004FEAEC710AD00DE029E02AE009F1070164
:105AD00021F00702F2E802C1914609E00FFA8CFCBE
